:020000040000fa
:080000000002040000000000f2
:020000040000fa
:100008009a0200009a0200009a0200009a02000078
:100018009a0200009a0200009a0200009a02000068
:100028009a0200009a0200009a02000038080000b4
:100038009a0200009a0200009a0200009a02000048
:100048009a0200009a0200009a0200009a02000038
:100058009a0200009a0200009a0200009a02000028
:100068009a0200009a0200009a0200009a02000018
:100078009a0200009a0200009a0200009a02000008
:100088009a0200009a0200009a0200009a020000f8
:100098009a0200009a0200009a0200009a020000e8
:1000a8009a0200009a0200009a0200009a020000d8
:1000b8009a0200009a0200009a0200009a020000c8
:1000c8009a0200009a0200009a0200009a020000b8
:1000d8009a0200009a0200009a0200009a020000a8
:1000e8009a0200009a0200009a0200009a02000098
:1000f8009a0200009a0200009a0200009a02000088
:100108009a0200009a0200009a0200009a02000077
:100118009a0200009a0200009a0200009a02000067
:100128009a0200009a0200009a0200009a02000057
:100138009a0200009a0200009a0200009a02000047
:100148009a0200009a0200009a0200009a02000037
:100158009a0200009a0200009a0200009a02000027
:100168009a0200009a0200009a0200009a02000017
:100178009a0200009a0200009a0200009a02000007
:100188009a0200009a0200009a0200009a020000f7
:100198009a0200009a0200009a0200009a020000e7
:1001a8009a0200009a0200009a0200009a020000d7
:1001b8009a0200009a0200009a0200009a020000c7
:1001c8009a0200009a0200009a0200009a020000b7
:1001d8009a0200009a0200009a0200009a020000a7
:1001e8009a0200009a0200009a0200009a02000097
:0801f8009a0200009a020000c7
:020000040000fa
:100208009a0200009a0200009a0200009a02000076
:100218009a0200009a0200009a0200009a02000066
:100228009a0200009a0200009a02000038080000b2
:100238009a0200009a0200009a0200009a02000046
:100248009a0200009a0200009a0200009a02000036
:100258009a0200009a0200009a0200009a02000026
:100268009a0200009a0200009a0200009a02000016
:100278009a0200009a0200009a0200009a02000006
:100288009a0200009a0200009a0200009a020000f6
:100298009a0200009a0200009a0200009a020000e6
:1002a8009a0200009a0200009a0200009a020000d6
:1002b8009a0200009a0200009a0200009a020000c6
:1002c8009a0200009a0200009a0200009a020000b6
:1002d8009a0200009a0200009a0200009a020000a6
:1002e8009a0200009a0200009a0200009a02000096
:1002f8009a0200009a0200009a0200009a02000086
:100308009a0200009a0200009a0200009a02000075
:100318009a0200009a0200009a0200009a02000065
:100328009a0200009a0200009a0200009a02000055
:100338009a0200009a0200009a0200009a02000045
:100348009a0200009a0200009a0200009a02000035
:100358009a0200009a0200009a0200009a02000025
:100368009a0200009a0200009a0200009a02000015
:100378009a0200009a0200009a0200009a02000005
:100388009a0200009a0200009a0200009a020000f5
:100398009a0200009a0200009a0200009a020000e5
:1003a8009a0200009a0200009a0200009a020000d5
:1003b8009a0200009a0200009a0200009a020000c5
:1003c8009a0200009a0200009a0200009a020000b5
:1003d8009a0200009a0200009a0200009a020000a5
:1003e8009a0200009a0200009a0200009a02000095
:0803f8009a0200009a020000c5
:020000040000fa
:10040000ef8220000e7f24000e0188000000000013
:10041000000020000000e000020032000001200087
:10042000200288000c00070080c42000010020008a
:1004300011000700000020000000e0000200320070
:1004400000000200000000007e0802000000000022
:100450000040da000000fe004440a9000001200036
:100460000000e0000300320000002000a00188002e
:100470004440a80000000600910188008000780038
:100480000000eb0015003700e280400032a0b4000d
:100490009101ba00e280400032a0b4009102ba009b
:1004a000e280400032a0b4000002eb00472bde00e7
:1004b000f507b200602ce10004003a000059eb009f
:1004c0008301e900fdff3e00040037006128e100e0
:1004d000010032000082eb00040007001101ba00a5
:1004e0000200e000e8ff3a00000006003159ba00bf
:1004f0008301e9000c0032002159ba008301e900b0
:10050000080032000400e00003003a00e2804000ee
:1005100032a0b400f5ff370011d9ba008301e90019
:10052000faff3a008100e800e180400032a0b40008
:10053000000006000040da000000fe003021ef005d
:10054000b1098800d0098800000006006022b800c8
:10055000060220000000d0008180d2000482d20078
:100560008582d2000000a0000202520083825a005d
:10057000030031000202420083824a000000a10011
:0c0580000603e900f3ff3a00000006004b
:020000040000fa
:10058c000000000001000000020000000300000059
:10059c000401000005010000060100000701000035
:020000040000fa
:1005ac000200fa00004f78009e42780084822000fe
:1005bc00054a78000080fa00000006000400fa00ea
:1005cc002047980031479800cb82a8000002eb002e
:1005dc00040f7800848220001442780004407800d4
:1005ec00c400070040002000f5000700ae42900058
:1005fc0004802000054a7800be4290001480200040
:10060c00054a7800d4010700401f20008e04070023
:10061c007f01070000027800040f7800048020009e
:10062c001442780004407800b200070014802000c7
:10063c001442780004407800ae0007001e007800d9
:10064c0081010700cb82a9000080fa00000006009f
:10065c000600fa0020079800cba2a8000002eb00cd
:10066c00040f7800230037001e02780004024200b9
:10067c00652c280065427a00044378000580200030
:10068c00864a78001e027800040242000402e80048
:10069c00652c280065427a00044378001580200000
:1006ac00864a7800ac0107002e0090006604070013
:1006bc0057010700000278001407980004802000fe
:1006cc00144278000482fb001580200095427800cb
:1006dc008582fb00040242000502420084024200b3
:1006ec0024802000048242009e029000050a7800bb
:1006fc001e0fe8001e027800e70f5200daff3400ec
:10070c00050107008f0007000042eb0084427800cf
:10071c0006802000054b78000042eb0084427800f4
:10072c0016802000054b7800cba2a9000080fa00af
:10073c00000006000a00fa00604798007147980014
:10074c00024f9800134f98000e4a90008482fb00d1
:10075c00843e200004aab900840278001e4a90004e
:10076c000482fb00110009008402d8000102780009
:10077c00e00f52000c003a000e4a90008482fb00fd
:10078c00843e200004aab900840278001e4a90001e
:10079c000482fb00110009008402d80000027800da
:1007ac00040f78000c0037000e4a90008482fb0086
:1007bc00843e200004aab900840278001e4a9000ee
:1007cc000482fb00110009008402d80000027800aa
:1007dc000402e800040f7800cb82a8008482200079
:1007ec001442780004407800420007001e02e80022
:1007fc000442780004424200044078003d000700a7
:10080c00ee42900004802000054a78007e40900063
:10081c0001e8b70050010700401f20000a04070040
:10082c000480200014427800044078003100070056
:10083c001480200014427800044078002d0007003a
:10084c000002eb00140798000c003700f0000700c2
:10085c0000027800240798002e009000fa00070090
:10086c001e4a90000482fb0004007800fd03070080
:10087c001e0290000402e800140798001e0290006b
:10088c009e0f5200f1ff39000042eb0084427800c9
:10089c0001802000854878000042eb00044078007d
:1008ac0001e8b700cb82a9000080fa000000060026
:1008bc000000fa00cb82a800848220001442780049
:1008cc00044078000b000700200020003c000700cb
:1008dc0080c0b3000700070020c0b300050007006c
:1008ec00401f2000df030700cb82a9000080fa0024
:1008fc00000006000200fa00004f78000000000023
:10090c00151180000420200004826200e00f5200c8
:10091c00fbff3a009e4278000582fb002411880000
:10092c000080fa00000006000000fa0089030700ae
:10093c000002be0024418800354188000080fa0086
:10094c00000006000400fa00820307000003be004a
:10095c002441800035418000041f530005975b0043
:10096c001e0278000442780004407800e1ff070082
:10097c001e02be00482bdd004822de00040273007c
:10098c00c82ade000442780004407800d9ff070032
:10099c001e02be00402ade000442780004407800ab
:1009ac00d4ff07001e02be00482ade000442780075
:1009bc0004407800cfff07000080fa00000006001a
:1009cc000400fa0010079800f40f2000040f7800c0
:1009dc00070037001e0278000442780004407800bb
:1009ec00c4ff07001e0290001e025200140798005c
:1009fc001e0290009e0f5200f6ff31001e02900066
:100a0c000442780004407800baff07000080fa0026
:100a1c00000006000200fa00cb82a80084822000ad
:100a2c001442780004407800b2ff07001400200044
:100a3c00040f78000042eb0004437800058020008e
:100a4c00864a78001f0037000042eb000443780010
:100a5c0015802000864a7800100037001e027800ae
:100a6c000442780004407800a2ff07001e0fe80043
:100a7c001e02780004427800044078009dff0700b5
:100a8c001e0fe80014802000144278000442e80095
:100a9c000443780015802000864a780014802000da
:100aac0014427800e14f5200ecff36000480200025
:100abc00144278000442e8000443780005802000ca
:100acc00864a78000480200014427800e74f5200d8
:100adc00ddff360084822000144278000440780048
:100aec0084ff07000002eb00040f78000042eb00cb
:100afc000443780005802000864a78000042eb0011
:100b0c000443780015802000864a7800cb82a90027
:100b1c000080fa00000006000800fa008482200021
:100b2c00144278000440780072ff07004001200056
:100b3c00a3ff07000002eb00040f78001900370038
:100b4c001e02780004024200652c280065427a00df
:100b5c000402fb00140798001e02780004024200f5
:100b6c000402e800652c280065427a000402fb00b0
:100b7c00240798001e029000840242002e0290006e
:100b8c00048242008402420024802000048242003d
:100b9c0094027800350798003e0090002a00070068
:100bac001e0fe8001e027800e70f5200e4ff34002d
:100bbc0064ff07000042eb0084427800368220007c
:100bcc00054b78000080fa00000006000000fa00d7
:100bdc003482200014427800044078000080fa002f
:100bec00000006000200fa00004f78001147980040
:100bfc009e42780004802000054a78009e429000b6
:100c0c0014802000054a78000080fa0000000600dd
:100c1c000200fa002023a800000000000419800044
:100c2c0061026200e00f5200fcff320004188000e9
:100c3c00040f78002003a9001e027800040078003d
:100c4c000080fa00000006000200fa00000f780095
:100c5c001e027800044278000440780025ff07004b
:100c6c001e0278004822de0004427800044078001e
:100c7c0020ff07000080fa00000006000200fa00c6
:100c8c00000000001411800061026200e00f5200ad
:100c9c00fcff320034118000044f78001e427800b3
:100cac00044078000080fa00000006000000fa0002
:100cbc001411800061026200e00f52000200320049
:100ccc0014c0b300010037000042eb000440780070
:100cdc000080fa00000006000000fa005441800079
:100cec000402e8005441880054418000e70f520090
:100cfc00070034000002eb0054418800c0000700dc
:100d0c0014c0b3000443780035822000864a780072
:100d1c005441800004024200652c280065427a0090
:100d2c000443780005802000864a780054418000f6
:100d3c00040242000402e800652c280065427a0097
:100d4c000443780015802000864a780002000700d2
:100d5c000080fa00000006000200fa001480200057
:100d6c0014427800044f78000580200095427800ea
:100d7c00154798009e42780061c262006142620091
:100d8c00614262000482fb00610262004722dd00c6
:100d9c00e6168000f5f72f0085026300050272004d
:100dac00e41688009e4278000582fb000402d10004
:100dbc00044278006142620061426200614262005a
:100dcc000482fb00610262004622dd00e616800010
:100ddc00f5fb2f008502630005027200e416880003
:100dec009e4278000582fb004222de00044278001d
:100dfc006142620061426200614262000482fb0057
:100e0c00610262004522dd00e6168000f5fd2f0030
:100e1c008502630005027200e41688009e42780089
:100e2c000582fb004322de0004427800614262002e
:100e3c0061426200614262000482fb006102620056
:100e4c004422dd00e6168000f5fe2f0085026300cb
:100e5c0005027200e41688001e4290006142620096
:100e6c0061426200614262000482fb006102620026
:100e7c004422dd00b6168000f5fe2f0085026300cb
:100e8c0005027200b41688001e4290000482fb001a
:100e9c000402d100044278006142620061426200a7
:100eac00614262000482fb00610262004322dd00a9
:100ebc00b616800075ff2f008502630005027200d4
:100ecc00b41688001e4290000482fb004222de0011
:100edc000442780061426200614262006142620039
:100eec000482fb00610262004222dd00b616800023
:100efc00b5ff2f008502630005027200b41688004e
:100f0c001e4290000482fb004322de000442780063
:100f1c006142620061426200614262000482fb0035
:100f2c006102620004024200b6168000d5ff2f0059
:100f3c008502630005027200b41688000080fa0076
:100f4c00000006000000fa000002eb00544188008b
:100f5c005441800004024200652c280065427a004e
:100f6c000443780005802000864a780054418000b4
:100f7c00040242000402e800652c280065427a0055
:100f8c000443780015802000864a78000042eb006c
:100f9c000443780035822000864a78006eff0700f3
:100fac00401f200028020700cb82a8005efe07002d
:100fbc00070007000080fa00000006000000fa009d
:100fcc000f000700cb82a9000080fa000000060089
:100fdc000000fa00e2c4b300f1c1b3000040eb0022
:100fec006e0107000002eb00040888008460a90071
:100ffc009460a80005e1a8000080fa00000006003b
:10100c000000fa009460a90005e1a9000080fa0034
:10101c00000006000000fa000042eb0004437800d8
:10102c0025822000864a78000080fa000000060025
:10103c000000fa0014c0b30004437800258220009d
:10104c00864a78000080fa00000006000000fa00d2
:10105c002482200014427800044078000080fa00ba
:10106c00000006003600f800809fbe00829fbe0084
:10107c00849fbe00869fbe000000fa000800070097
:10108c008460a9000080fa004f03be004f02be002e
:10109c004f01be004f00be003600f90000400600b4
:1010ac000000fa00889fbe000480200014427800e3
:1010bc000484fb0014802000144278008484fb001c
:1010cc00d3fe0700800278000802440009024200a7
:1010dc00040342002480200004024300050a780027
:1010ec00fdfe07004f04be000080fa000000060061
:1010fc000a00fa00b4010700c301070087010700ca
:10110c00e60007007001070040062000d50107002b
:10111c0042010700f1c0b300f0c0b300b1fe0700fc
:10112c000dff0700401f2000c70107000042eb0025
:10113c0004437800c5822000864a78000042eb0008
:10114c00044f78000d003700cbc2a900cb82a80059
:10115c0020032000c3010700cb82a900cba2a8006a
:10116c0020032000bf010700cba2a900cbc2a8001e
:10117c0020032000bb0107001e4fe8001e42780030
:10118c00e44f5200f0ff3600cbc2a9000500370037
:10119c0000000000030037000000000001003700d1
:1011ac0000000000c482200014427800e04f52007e
:1011bc0090003a00b1fe070000427800044378002a
:1011cc00d5822000864a7800541680004e22de001c
:1011dc006142620004c2ea00614262000482fb00c8
:1011ec00610262004e22dd0056168000f5ff2b00d6
:1011fc00850263000502720054168800d482200018
:10120c001442780004407800e5fc0700d4822000ea
:10121c00144278000482fb006123b900f4fb2f0018
:10122c00f5ff2f000602420087824a00960120003b
:10123c0007002000860f5200878f5a006a003e007c
:10124c00046001001900370023003700320037001a
:10125c004400370051003700570037005c0037005e
:10126c006300370062003700610037006000370010
:10127c005f0037005e0037005d0037005c00370010
:10128c005b0037005a003700590037005800370010
:10129c005100370056003700550037005400370016
:1012ac0053003700520037004d00370073fe070023
:1012bc00004278001447980070fe07000042780046
:1012cc002447980053ff0700ae4090001e4090004a
:1012dc00bafc07004700370068fe070000427800a0
:1012ec003447980065fe0700004278004447980098
:1012fc0048ff07003e4290008482fb004e42900063
:10130c000482fb004822dd000482420004007800c5
:10131c00cffc07003700370058fe0700004278006a
:10132c001447980055fe07000042780024479800a7
:10133c0052fe070000427800544798004ffe070009
:10134c00004278006447980032ff0700ee4190009d
:10135c005e419000ae4090001e409000f5fc0700ee
:10136c002400370045fe07000042780074479800bf
:10137c0042fe070000427800044f98003ffe070031
:10138c0000427800144f98001e4990008e4890003f
:10139c007e4090008100070016003700e9fe070030
:1013ac0014c0b30004437800c5822000864a78003c
:1013bc001fff07000f00370000ff07000042eb0083
:1013cc0004437800c5822000864a78000900370063
:1013dc0037fd0700070037008efd070005003700ba
:1013ec0013ff070003003700000000000100370066
:1013fc0000000000c482200014427800e14f52002b
:10140c0063ff3a00f1fd070000427800e04f520004
:10141c00070032000dff070000427800e04f520039
:10142c0003003200fbfe0700bbfd0700e8fe0700cf
:10143c001efe070000427800e04f520056ff3200bb
:10144c000efe07000042780004437800d58220008d
:10145c00864a7800d58220009542780064c4b30097
:10146c0084cf520006003a00d4fe07000042eb0085
:10147c0004437800c5822000864a780049ff370073
:10148c00d582200095427800a4c5b30084cf5200c9
:10149c0043ff3a00e6fe070042ff37000000fa0067
:1014ac00c642a80021a3a9002183a8002143a800bb
:1014bc00041980000480a1000490a1000419880084
:1014cc00041980000450a0000460a0000470a00067
:1014dc00041988002063a9002043a9001419800076
:1014ec0004d0a00004e0a00004f0a10014198800ae
:1014fc002343a900141980000480a1000490a100ca
:10150c0014198800141980000420a1000430a100d3
:10151c000440a1000450a100141988002223a90042
:10152c002203a90025e3a90025198000f40f2e0041
:10153c008482620004502000050272002419880085
:10154c0064c0b3000443780045322000864a78001a
:10155c00941980000400a1000410a1000420a10033
:10156c00941988000002eb003419880028e3a900c4
:10157c004519800004fe2f00048262000410a000b4
:10158c00441988000002eb00841988002c43a90040
:10159c0021e3a8000080fa00000006000400fa0015
:1015ac00004f7800114798002247980005a1a90028
:1015bc0004c1a9009e42780063c262000482fb0051
:1015cc00630262004422dd0026088000f5fc2f0037
:1015dc008502630005027200240888000441a900fa
:1015ec000421a9001e4290008482fb002e42900030
:1015fc000482fb004822dd000482420014088800ab
:10160c002405800004c0a00004d0a00004e0a000c9
:10161c00240588000080fa00000006000200fa0091
:10162c000042eb00044f780021a2a9002182a900fe
:10163c002162a900041180000480a1000490a10083
:10164c000411880020e2a90020c2a90020a2a90050
:10165c002082a9002062a800041180000410a100bf
:10166c000420a100041188002002a90023e2a90093
:10167c0023a2a90023c2a9002362a900141180008f
:10168c000460a1000470a1001411880022a2a9001a
:10169c00640520004411880021e2a8002342a80020
:1016ac000200370034118000044f780014118000c0
:1016bc0061026200e00f5200faff3a002222a900f8
:1016cc000080fa00000006000000fa00d882a90091
:1016dc00d8a2a900d8c2a900d8e2a900d222a90098
:1016ec00d242a900d262a900d282a900e4c2a90008
:1016fc00e8c2a800d2a2a900d6a2a800c782a9005d
:10170c00cb82a900c7a2a900cba2a900c7c2a9007d
:10171c00cbc2a9000080fa00000006000000fa000d
:10172c0017000700210007000080fa0000000600e7
:10173c000400fa0084098000040f780094098000ea
:10174c00140798001e02be000400be000080fa00c0
:10175c00000006000000fa00f5ff07000002be00c2
:10176c0052002000030020000400be0074fb0700a0
:10177c000002be000400be000080fa00000006005b
:10178c000400fa00d4f92500040f7800840220002c
:10179c00140798009e0090001e00780064fb070060
:1017ac003be1a8000080fa00000006000000fa00ef
:1017bc000002eb00940988000002eb008409880009
:1017cc000080fa00000006000000fa00353a8000a4
:1017dc0004e02f00048262006400b300343a8800f5
:1017ec00253a800004fe2f0004826200243a88000f
:1017fc00243a80000460a1000470a100243a8800ff
:10180c000080fa00000006000000fa000000000052
:10181c00153a80000402200004826200e00f52009e
:10182c00fbff32000080fa00000006000000fa0006
:10183c000082eb00641988000082eb00641b8800b6
:10184c000080fa00000006006801b8002200b10018
:10185c0000000000000000000201e900fcff3a005b
:10186c0000000600e2f32100000000000000000070
:10187c000201e900fcff3a000000e900f9ff3a0020
:04188c000000060052
:020000040000fa
:101890002c0800000200000000000000000800000a
:0c18a0002c000000000000000000000010
:020000040000fa
:0200000401f009
:04000c00fbff0000f6
:020000040000fa
:0200000401f009
:04001000bcff000031
:020000040000fa
:0200000401f009
:040014007fff00006a
:00000001FF
